{
  "contractName": "WeCoin",
  "abi": [
    {
      "inputs": [],
      "stateMutability": "nonpayable",
      "type": "constructor"
    },
    {
      "anonymous": false,
      "inputs": [
        {
          "indexed": true,
          "internalType": "address",
          "name": "_owner",
          "type": "address"
        },
        {
          "indexed": true,
          "internalType": "address",
          "name": "_spender",
          "type": "address"
        },
        {
          "indexed": false,
          "internalType": "uint256",
          "name": "_value",
          "type": "uint256"
        }
      ],
      "name": "ApprovalEvent",
      "type": "event"
    },
    {
      "anonymous": false,
      "inputs": [
        {
          "indexed": true,
          "internalType": "address",
          "name": "from",
          "type": "address"
        },
        {
          "indexed": true,
          "internalType": "address",
          "name": "_to",
          "type": "address"
        },
        {
          "indexed": false,
          "internalType": "uint256",
          "name": "_value",
          "type": "uint256"
        }
      ],
      "name": "TransferEvent",
      "type": "event"
    },
    {
      "inputs": [],
      "name": "_decimals",
      "outputs": [
        {
          "internalType": "uint8",
          "name": "",
          "type": "uint8"
        }
      ],
      "stateMutability": "view",
      "type": "function",
      "constant": true
    },
    {
      "inputs": [],
      "name": "_name",
      "outputs": [
        {
          "internalType": "string",
          "name": "",
          "type": "string"
        }
      ],
      "stateMutability": "view",
      "type": "function",
      "constant": true
    },
    {
      "inputs": [],
      "name": "_symbol",
      "outputs": [
        {
          "internalType": "string",
          "name": "",
          "type": "string"
        }
      ],
      "stateMutability": "view",
      "type": "function",
      "constant": true
    },
    {
      "inputs": [],
      "name": "name",
      "outputs": [
        {
          "internalType": "string",
          "name": "",
          "type": "string"
        }
      ],
      "stateMutability": "pure",
      "type": "function",
      "constant": true
    },
    {
      "inputs": [],
      "name": "symbol",
      "outputs": [
        {
          "internalType": "string",
          "name": "",
          "type": "string"
        }
      ],
      "stateMutability": "pure",
      "type": "function",
      "constant": true
    },
    {
      "inputs": [],
      "name": "decimals",
      "outputs": [
        {
          "internalType": "uint8",
          "name": "",
          "type": "uint8"
        }
      ],
      "stateMutability": "pure",
      "type": "function",
      "constant": true
    },
    {
      "inputs": [],
      "name": "totalSupply",
      "outputs": [
        {
          "internalType": "uint256",
          "name": "",
          "type": "uint256"
        }
      ],
      "stateMutability": "view",
      "type": "function",
      "constant": true
    },
    {
      "inputs": [
        {
          "internalType": "address",
          "name": "_owner",
          "type": "address"
        }
      ],
      "name": "balanceOf",
      "outputs": [
        {
          "internalType": "uint256",
          "name": "",
          "type": "uint256"
        }
      ],
      "stateMutability": "view",
      "type": "function",
      "constant": true
    },
    {
      "inputs": [
        {
          "internalType": "address",
          "name": "_owner",
          "type": "address"
        },
        {
          "internalType": "address",
          "name": "_spender",
          "type": "address"
        }
      ],
      "name": "allowance",
      "outputs": [
        {
          "internalType": "uint256",
          "name": "",
          "type": "uint256"
        }
      ],
      "stateMutability": "view",
      "type": "function",
      "constant": true
    },
    {
      "inputs": [
        {
          "internalType": "address",
          "name": "_to",
          "type": "address"
        },
        {
          "internalType": "uint256",
          "name": "_value",
          "type": "uint256"
        }
      ],
      "name": "transfer",
      "outputs": [
        {
          "internalType": "bool",
          "name": "",
          "type": "bool"
        }
      ],
      "stateMutability": "nonpayable",
      "type": "function"
    },
    {
      "inputs": [
        {
          "internalType": "address",
          "name": "_spender",
          "type": "address"
        },
        {
          "internalType": "uint256",
          "name": "_value",
          "type": "uint256"
        }
      ],
      "name": "approve",
      "outputs": [
        {
          "internalType": "bool",
          "name": "",
          "type": "bool"
        }
      ],
      "stateMutability": "nonpayable",
      "type": "function"
    },
    {
      "inputs": [
        {
          "internalType": "address",
          "name": "_from",
          "type": "address"
        },
        {
          "internalType": "address",
          "name": "_to",
          "type": "address"
        },
        {
          "internalType": "uint256",
          "name": "_value",
          "type": "uint256"
        }
      ],
      "name": "transferFrom",
      "outputs": [
        {
          "internalType": "bool",
          "name": "",
          "type": "bool"
        }
      ],
      "stateMutability": "nonpayable",
      "type": "function"
    }
  ],
  "bytecode": "0x60806040526103e860005534801561001657600080fd5b50600054600160003373ffffffffffffffffffffffffffffffffffffffff1673ffffffffffffffffffffffffffffffffffffffff168152602001908152602001600020819055506111908061006c6000396000f3fe608060405234801561001057600080fd5b50600436106100b45760003560e01c806370a082311161007157806370a082311461019157806395d89b41146101c1578063a9059cbb146101df578063b09f12661461020f578063d28d88521461022d578063dd62ed3e1461024b576100b4565b806306fdde03146100b9578063095ea7b3146100d757806318160ddd1461010757806323b872dd14610125578063313ce5671461015557806332424aa314610173575b600080fd5b6100c161027b565b6040516100ce9190610d0b565b60405180910390f35b6100f160048036038101906100ec9190610dc6565b6102b8565b6040516100fe9190610e21565b60405180910390f35b61010f610418565b60405161011c9190610e4b565b60405180910390f35b61013f600480360381019061013a9190610e66565b610421565b60405161014c9190610e21565b60405180910390f35b61015d610867565b60405161016a9190610ed5565b60405180910390f35b61017b610870565b6040516101889190610ed5565b60405180910390f35b6101ab60048036038101906101a69190610ef0565b610875565b6040516101b89190610e4b565b60405180910390f35b6101c96108be565b6040516101d69190610d0b565b60405180910390f35b6101f960048036038101906101f49190610dc6565b6108fb565b6040516102069190610e21565b60405180910390f35b610217610b79565b6040516102249190610d0b565b60405180910390f35b610235610bb2565b6040516102429190610d0b565b60405180910390f35b61026560048036038101906102609190610f1d565b610beb565b6040516102729190610e4b565b60405180910390f35b60606040518060400160405280600681526020017f5765436f696e0000000000000000000000000000000000000000000000000000815250905090565b60008073ffffffffffffffffffffffffffffffffffffffff168373ffffffffffffffffffffffffffffffffffffffff1603610328576040517f08c379a000000000000000000000000000000000000000000000000000000000815260040161031f90610fa9565b60405180910390fd5b81600260003373ffffffffffffffffffffffffffffffffffffffff1673ffffffffffffffffffffffffffffffffffffffff16815260200190815260200160002060008573ffffffffffffffffffffffffffffffffffffffff1673ffffffffffffffffffffffffffffffffffffffff168152602001908152602001600020819055508273ffffffffffffffffffffffffffffffffffffffff163373ffffffffffffffffffffffffffffffffffffffff167f08245b82180b1f5e514e503c113ab0197093b2cb542145037c0a31b54b1d998e846040516104069190610e4b565b60405180910390a36001905092915050565b60008054905090565b6000600160008573ffffffffffffffffffffffffffffffffffffffff1673ffffffffffffffffffffffffffffffffffffffff168152602001908152602001600020548211156104a5576040517f08c379a000000000000000000000000000000000000000000000000000000000815260040161049c90611015565b60405180910390fd5b600260008573ffffffffffffffffffffffffffffffffffffffff1673ffffffffffffffffffffffffffffffffffffffff16815260200190815260200160002060003373ffffffffffffffffffffffffffffffffffffffff1673ffffffffffffffffffffffffffffffffffffffff16815260200190815260200160002054821115610564576040517f08c379a000000000000000000000000000000000000000000000000000000000815260040161055b90611081565b60405180910390fd5b600073ffffffffffffffffffffffffffffffffffffffff168373ffffffffffffffffffffffffffffffffffffffff16036105d3576040517f08c379a00000000000000000000000000000000000000000000000000000000081526004016105ca90610fa9565b60405180910390fd5b81600160008673ffffffffffffffffffffffffffffffffffffffff1673ffffffffffffffffffffffffffffffffffffffff1681526020019081526020016000205461061e91906110d0565b600160008673ffffffffffffffffffffffffffffffffffffffff1673ffffffffffffffffffffffffffffffffffffffff1681526020019081526020016000208190555081600160008573ffffffffffffffffffffffffffffffffffffffff1673ffffffffffffffffffffffffffffffffffffffff168152602001908152602001600020546106ac9190611104565b600160008573ffffffffffffffffffffffffffffffffffffffff1673ffffffffffffffffffffffffffffffffffffffff1681526020019081526020016000208190555081600260008673ffffffffffffffffffffffffffffffffffffffff1673ffffffffffffffffffffffffffffffffffffffff16815260200190815260200160002060003373ffffffffffffffffffffffffffffffffffffffff1673ffffffffffffffffffffffffffffffffffffffff1681526020019081526020016000205461077791906110d0565b600260008673ffffffffffffffffffffffffffffffffffffffff1673ffffffffffffffffffffffffffffffffffffffff16815260200190815260200160002060003373ffffffffffffffffffffffffffffffffffffffff1673ffffffffffffffffffffffffffffffffffffffff168152602001908152602001600020819055508273ffffffffffffffffffffffffffffffffffffffff168473ffffffffffffffffffffffffffffffffffffffff167feaf1c4b3ce0f4f62a2bae7eb3e68225c75f7e6ff4422073b7437b9a78d25f170846040516108549190610e4b565b60405180910390a3600190509392505050565b60006012905090565b601281565b6000600160008373ffffffffffffffffffffffffffffffffffffffff1673ffffffffffffffffffffffffffffffffffffffff168152602001908152602001600020549050919050565b60606040518060400160405280600381526020017f5745430000000000000000000000000000000000000000000000000000000000815250905090565b6000600160003373ffffffffffffffffffffffffffffffffffffffff1673ffffffffffffffffffffffffffffffffffffffff1681526020019081526020016000205482111561097f576040517f08c379a000000000000000000000000000000000000000000000000000000000815260040161097690611015565b60405180910390fd5b600073ffffffffffffffffffffffffffffffffffffffff168373ffffffffffffffffffffffffffffffffffffffff16036109ee576040517f08c379a00000000000000000000000000000000000000000000000000000000081526004016109e590610fa9565b60405180910390fd5b81600160003373ffffffffffffffffffffffffffffffffffffffff1673ffffffffffffffffffffffffffffffffffffffff16815260200190815260200160002054610a3991906110d0565b600160003373ffffffffffffffffffffffffffffffffffffffff1673ffffffffffffffffffffffffffffffffffffffff1681526020019081526020016000208190555081600160008573ffffffffffffffffffffffffffffffffffffffff1673ffffffffffffffffffffffffffffffffffffffff16815260200190815260200160002054610ac79190611104565b600160008573ffffffffffffffffffffffffffffffffffffffff1673ffffffffffffffffffffffffffffffffffffffff168152602001908152602001600020819055508273ffffffffffffffffffffffffffffffffffffffff163373ffffffffffffffffffffffffffffffffffffffff167feaf1c4b3ce0f4f62a2bae7eb3e68225c75f7e6ff4422073b7437b9a78d25f17084604051610b679190610e4b565b60405180910390a36001905092915050565b6040518060400160405280600381526020017f574543000000000000000000000000000000000000000000000000000000000081525081565b6040518060400160405280600681526020017f5765436f696e000000000000000000000000000000000000000000000000000081525081565b6000600260008473ffffffffffffffffffffffffffffffffffffffff1673ffffffffffffffffffffffffffffffffffffffff16815260200190815260200160002060008373ffffffffffffffffffffffffffffffffffffffff1673ffffffffffffffffffffffffffffffffffffffff16815260200190815260200160002054905092915050565b600081519050919050565b600082825260208201905092915050565b60005b83811015610cac578082015181840152602081019050610c91565b83811115610cbb576000848401525b50505050565b6000601f19601f8301169050919050565b6000610cdd82610c72565b610ce78185610c7d565b9350610cf7818560208601610c8e565b610d0081610cc1565b840191505092915050565b60006020820190508181036000830152610d258184610cd2565b905092915050565b600080fd5b600073ffffffffffffffffffffffffffffffffffffffff82169050919050565b6000610d5d82610d32565b9050919050565b610d6d81610d52565b8114610d7857600080fd5b50565b600081359050610d8a81610d64565b92915050565b6000819050919050565b610da381610d90565b8114610dae57600080fd5b50565b600081359050610dc081610d9a565b92915050565b60008060408385031215610ddd57610ddc610d2d565b5b6000610deb85828601610d7b565b9250506020610dfc85828601610db1565b9150509250929050565b60008115159050919050565b610e1b81610e06565b82525050565b6000602082019050610e366000830184610e12565b92915050565b610e4581610d90565b82525050565b6000602082019050610e606000830184610e3c565b92915050565b600080600060608486031215610e7f57610e7e610d2d565b5b6000610e8d86828701610d7b565b9350506020610e9e86828701610d7b565b9250506040610eaf86828701610db1565b9150509250925092565b600060ff82169050919050565b610ecf81610eb9565b82525050565b6000602082019050610eea6000830184610ec6565b92915050565b600060208284031215610f0657610f05610d2d565b5b6000610f1484828501610d7b565b91505092915050565b60008060408385031215610f3457610f33610d2d565b5b6000610f4285828601610d7b565b9250506020610f5385828601610d7b565b9150509250929050565b7f4164647265737320697320696e76616c69642100000000000000000000000000600082015250565b6000610f93601383610c7d565b9150610f9e82610f5d565b602082019050919050565b60006020820190508181036000830152610fc281610f86565b9050919050565b7f4e6f7420656e6f7567682066756e647321000000000000000000000000000000600082015250565b6000610fff601183610c7d565b915061100a82610fc9565b602082019050919050565b6000602082019050818103600083015261102e81610ff2565b9050919050565b7f4e6f7420656e6f75676820616c6c6f7765642066756e64730000000000000000600082015250565b600061106b601883610c7d565b915061107682611035565b602082019050919050565b6000602082019050818103600083015261109a8161105e565b9050919050565b7f4e487b7100000000000000000000000000000000000000000000000000000000600052601160045260246000fd5b60006110db82610d90565b91506110e683610d90565b9250828210156110f9576110f86110a1565b5b828203905092915050565b600061110f82610d90565b915061111a83610d90565b9250827fffffffffffffffffffffffffffffffffffffffffffffffffffffffffffffffff0382111561114f5761114e6110a1565b5b82820190509291505056fea264697066735822122073a48ce71380e2abf69f1be30069b60c475d54519b2165adce96f9c7c79dea5e64736f6c634300080e0033",
  "immutableReferences": {},
  "source": "// SPDX-License-Identifier: MIT\npragma solidity >=0.4.22 <0.9.0;\n\nimport \"./IERC20.sol\";\n\ncontract WeCoin is IERC20 {\n    string public constant _name = \"WeCoin\";\n    string public constant _symbol = \"WEC\";\n    uint8 public constant _decimals = 18;\n\n    uint256 private _totalSupply = 1000;\n    mapping(address => uint256) private _balances;\n    mapping(address => mapping(address => uint256)) private _allowed;\n\n    constructor() {\n        _balances[msg.sender] = _totalSupply;\n    }\n\n    event TransferEvent(\n        address indexed from,\n        address indexed _to,\n        uint256 _value\n    );\n\n    event ApprovalEvent(\n        address indexed _owner,\n        address indexed _spender,\n        uint256 _value\n    );\n\n    function name() public pure override returns (string memory) {\n        return _name;\n    }\n\n    function symbol() public pure override returns (string memory) {\n        return _symbol;\n    }\n\n    function decimals() public pure override returns (uint8) {\n        return _decimals;\n    }\n\n    function totalSupply() public view override returns (uint256) {\n        return _totalSupply;\n    }\n\n    function balanceOf(address _owner) public view override returns (uint256) {\n        return _balances[_owner];\n    }\n\n    function allowance(address _owner, address _spender)\n        public\n        view\n        override\n        returns (uint256)\n    {\n        return _allowed[_owner][_spender];\n    }\n\n    function transfer(address _to, uint256 _value)\n        public\n        override\n        returns (bool)\n    {\n        require(_value <= _balances[msg.sender], \"Not enough funds!\");\n        require(_to != address(0), \"Address is invalid!\");\n\n        _balances[msg.sender] = _balances[msg.sender] - _value;\n        _balances[_to] = _balances[_to] + _value;\n\n        emit TransferEvent(msg.sender, _to, _value);\n\n        return true;\n    }\n\n    function approve(address _spender, uint256 _value)\n        public\n        override\n        returns (bool)\n    {\n        require(_spender != address(0), \"Address is invalid!\");\n\n        _allowed[msg.sender][_spender] = _value;\n\n        emit ApprovalEvent(msg.sender, _spender, _value);\n\n        return true;\n    }\n\n    function transferFrom(\n        address _from,\n        address _to,\n        uint256 _value\n    ) public override returns (bool) {\n        require(_value <= _balances[_from], \"Not enough funds!\");\n        require(\n            _value <= _allowed[_from][msg.sender],\n            \"Not enough allowed funds\"\n        );\n        require(_to != address(0), \"Address is invalid!\");\n\n        _balances[_from] = _balances[_from] - _value;\n        _balances[_to] = _balances[_to] + _value;\n\n        _allowed[_from][msg.sender] = _allowed[_from][msg.sender] - _value;\n\n        emit TransferEvent(_from, _to, _value);\n\n        return true;\n    }\n}\n",
  "sourcePath": "/Users/maikvinicius/wecoin/contracts/WeCoin.sol",
  "compiler": {
    "name": "solc",
    "version": "0.8.14+commit.80d49f37.Emscripten.clang"
  },
  "schemaVersion": "3.4.7",
  "updatedAt": "2022-06-23T00:42:09.824Z",
  "networkType": "ethereum",
  "devdoc": {
    "kind": "dev",
    "methods": {},
    "version": 1
  },
  "userdoc": {
    "kind": "user",
    "methods": {},
    "version": 1
  }
}